:0506250025640D0A0030
:06000300E4F51CF51B22D0
:0C05D5001205C512052812000302061FC3
:10023E001205D57B12E4FDFC7FA01204917B157D87
:10024E00017C007FA01204917B177D027C007FA0B1
:10025E00120491E4FDFC7FA012042DEFFD7C007EC4
:10026E00067F251203B97D017C007FA012042DEFBD
:10027E00FD7C007E067F251203B97D027C007FA0E7
:10028E0012042DEFFD7C007E067F251203B9300986
:10029E001FC2091202C530070AC207C290C291C21C
:1002AE0092C29330080AC208D290D291D292D293BF
:0702BE00300ADBC20A80D701
:1005C500438901758A58758C9ED28CD2AFD2A922E7
:03000B000205A645
:1005A600C0E0C0D0758A58758C9E051CD209E51C22
:0F05B600B42707751C00D20A051BD0D0D0E03245
:0C05E1006462672073746172740D0A007C
:10055700200225200008200405D2008F9922C2AC72
:10056700AE350535EE5407242AF8A607E535653379
:0905770054077002D202D2AC223A
:0C0026008E0E8F0F8D108B118A12891323
:10003200C20BE50F450E701274301201B5AB11AA56
:1000420012A913900001E40201C7E510B41008756B
:1000520014107515008006751427751510E51545E1
:10006200146076AC14AD15AE0EAF0F1201E98F1607
:10007200AE0EAF0FAC14AD151201E98C0E8D0FE56B
:10008200166002D20BE5167003300B23E516C394FB
:100092000AE5165004243080022437AB11AA12A9B3
:1000A200131201B574012513F513E43512F512E5A7
:1000B20010B41014E514C4F854F0C868F514E5152A
:1000C200C4540F48F5158095AE14AF157C007D0A17
:1000D2001201E98E148F158084AB11AA12A913E4C0
:0300E2001201B553
:0100E50022F8
:060580008B0E8A0F8910AA
:10058600AB0EAA0FA91012019CF5116012AF111241
:0F059600061974012510F510E4350FF50F80E1FB
:0105A5002233
:0803B9008E088F098C0A8D0BE0
:1003C1000509E509AE087002050814F5828E83E47B
:1003D100937E008E0CF50D60526425450C70450529
:1003E10009E509AE087002050814F5828E83E493CD
:1003F100249C601624FB601224F16004242070C048
:100401007B007A0079377D1080087B007A0079378C
:100411007D0AAF0BAE0A1200267B007A00793712F3
:0B0421000580809CAF0D12061980952D
:01042C0022AD
:060619002002FD0205575E
:03002000AF3622D6
:0A060500C2ACE4F534F532D2AC22A9
:10052800E4F534F532C200C204C201C20275985023
:10053800438920F587758DFD758BFDC2ACC299D2B4
:0F0548008EC2031206057BFF7A0579E10205805A
:030023000204E7ED
:0B04E700C0E0C0D075D000C000C0070E
:1004F200309806AF99C2988F36309921C29920025E
:1005020006E53365356014200413AF330533EF5429
:0D05120007242AF8E6F599C2028002C20013
:09051F00D007D000D0D0D0E032AA
:10000E00E4F518F517C208C207F519F51AC205D29C
:02001E00972227
:06061F0012000ED20622BB
:03062A00C20622E3
:1002C50020973CE517C3946450150517E517C394AB
:1002D500064003E4F518E517B43C04D208C207C389
:1002E500E51A94FAE51994005051051AE51A7002B9
:1002F500051964F045197043D205C208C20722E505
:1003050018C3940C50350518E518C39402402CE524
:1003150017943A400EE51A94F0E51994005015C269
:10032500078011E517D39406400AE517943A50045F
:0C033500D207C208E4F517F519F51A22EA
:1000E600EF30E704D2818002C28100D28000000096
:1000F60000C280EF30E604D2818002C28100D28045
:1001060000000000C280EF30E504D2818002C28187
:1001160000D28000000000C280EF30E404D281806B
:1001260002C28100D28000000000C280EF30E304EA
:10013600D2818002C28100D28000000000C280EF1E
:1001460030E204D2818002C28100D2800000000029
:10015600C280EF30E104D2818002C28100D28000E9
:10016600000000C280EF30E004D2818002C281002C
:10017600D28000000000C280D28100000000D28040
:10018600000000007F502081047F018002DFF7C25B
:06019600800000000022C1
:0A060F00D28100D28000C2800022D8
:0C05ED00C28100D28000C28000D28122B6
:10034100E4FFD28000003081027F80C28000000083
:10035100D2800000308103430740C2800000D28078
:100361000000308103430720C280000000D28000DA
:1003710000308103430710C280000000D2800000DA
:10038100308103430708C280000000D280000030A2
:100391008103430704C280000000D2800000308145
:1003A10003430702C280000000D2800000308103B5
:0703B100430701C2800000B8
:0103B8002222
:02049100AE07B4
:10049300E4F51EFAD281D28000C28100C28000AF8F
:1004A300061200E6EF601EAF051200E6EF6016AF1E
:1004B300031200E6EF600EC280C28100D28000000A
:1004C300D2817F0122C280C28100D2800000D2810A
:1004D3000ABA03C0C280C28100D28000D281751ED5
:0304E300AA7F00ED
:0104E60022F3
:02042D00AE0718
:10042F00E4F51EFBFAD281D28000C28100C28000A7
:10043F00AF061200E6EF602FAF051200E6EF602760
:10044F00D28000D28100C28100C28000EE4401FF41
:10045F001200E6EF601112034112060FC280C28133
:10046F0000D28000D28122C280C28100D28000D20D
:10047F00810BBB00010AEB64034A70A9751EBB7F99
:01048F00FF6D
:010490002249
:030000000205F9FD
:0C05F900787FE4F6D8FD75813C02023EDC
:10019C00BB010689828A83E0225002E722BBFE0261
:0901AC00E32289828A83E4932294
:1001B500BB010689828A83F0225002F722BBFE0129
:0201C500F32223
:1001C700F8BB010DE58229F582E5833AF583E8F06E
:1001D700225006E92582C8F622BBFE05E92582C81A
:0201E700F22202
:1001E900BC000BBE0029EF8DF084FFADF022E4CCFA
:1001F900F875F008EF2FFFEE33FEEC33FCEE9DECC3
:10020900984005FCEE9DFE0FD5F0E9E4CEFD22ED08
:10021900F8F5F0EE8420D21CFEADF075F008EF2F52
:10022900FFED33FD4007985006D5F0F222C398FD43
:050239000FD5F0EA22E0
:00000001FF
