:05001E0025640D0A003D
:06000300E4F518F51722D8
:0903120012000E12023D0200036C
:1002D8001203123005FDC205120321EFFD7C007EDA
:0802E800007F1E12018880EB6B
:10000E00438901758A58758C9ED28CD2AFD2A922A3
:03000B000202BB33
:1002BB00C0E0C0D0758A58758C9E0518E518B42718
:0D02CB0007751800D2050517D0D0D0E0321D
:0C02F0006462672073746172740D0A0070
:10026C00200225200008200405D2008F9922C2AC60
:10027C00AE340534EE54072429F8A607E53465326C
:09028C0054077002D202D2AC2228
:0C0026008E0E8F0F8D108B118A12891323
:10003200C206E50F450E701274301200FFAB11AA12
:1000420012A913900001E4020111E510B410087521
:1000520014107515008006751427751510E51545E1
:10006200146076AC14AD15AE0EAF0F1201338F16BD
:10007200AE0EAF0FAC14AD151201338C0E8D0FE521
:10008200166002D206E5167003300623E516C39405
:100092000AE5165004243080022437AB11AA12A9B3
:1000A200131200FF74012513F513E43512F512E55E
:1000B20010B41014E514C4F854F0C868F514E5152A
:1000C200C4540F48F5158095AE14AF157C007D0A17
:1000D2001201338E148F158084AB11AA12A913E476
:0300E2001200FF0A
:0100E50022F8
:060295008B0E8A0F891098
:10029B00AB0EAA0FA9101200E6F5116012AF1112E6
:0F02AB00031B74012510F510E4350FF50F80E1EA
:0102BA002221
:080188008E088F098C0A8D0B13
:100190000509E509AE087002050814F5828E83E4AE
:1001A000937E008E0CF50D60526425450C7045055C
:1001B00009E509AE087002050814F5828E83E49300
:1001C000249C601624FB601224F16004242070C07B
:1001D0007B007A0079367D1080087B007A007936C2
:1001E0007D0AAF0BAE0A1200267B007A0079361228
:0B01F0000295809CAF0D12031B809550
:0101FB0022E1
:06031B002002FD02026C4D
:03032100AF3522D3
:0A030800C2ACE4F533F531D2AC22AB
:10023D00E4F533F531C200C204C201C20275985013
:10024D00438920F587758DFD758BFDC2ACC299D2A2
:0F025D008EC2031203087BFF7A0279F00202952A
:030023000201FCDB
:0B01FC00C0E0C0D075D000C000C007FC
:10020700309806AF99C2988F35309921C29920024C
:1002170006E53265346014200413AF320532EF541B
:0D022700072429F8E6F599C2028002C20002
:09023400D007D000D0D0D0E03298
:030000000202FCFD
:0C02FC00787FE4F6D8FD75813B0202D843
:1000E600BB010689828A83E0225002E722BBFE0218
:0900F600E32289828A83E493224B
:1000FF00BB010689828A83F0225002F722BBFE01E0
:02010F00F322D9
:10011100F8BB010DE58229F582E5833AF583E8F024
:10012100225006E92582C8F622BBFE05E92582C8D0
:02013100F222B8
:10013300BC000BBE0029EF8DF084FFADF022E4CCB0
:10014300F875F008EF2FFFEE33FEEC33FCEE9DEC79
:10015300984005FCEE9DFE0FD5F0E9E4CEFD22EDBF
:10016300F8F5F0EE8420D21CFEADF075F008EF2F09
:10017300FFED33FD4007985006D5F0F222C398FDFA
:050183000FD5F0EA2297
:00000001FF
