:0505E00025640D0A0076
:06000300E4F51CF51B22D0
:0C0590001205801204E31200030205DAD9
:1004600012059030091FC20912023E30070AC20766
:10047000C290C291C292C29330080AC208D290D2EE
:1004800091D292D293300ADBC20A7E057FE0AD1D85
:100490007C001203327B037D017C007FAA12040AD8
:0204A00080C119
:10058000438901758A58758C9ED28CD2AFD2A9222C
:03000B000205618A
:10056100C0E0C0D0758A58758C9E051CD209E51C67
:0F057100B42707751C00D20A051BD0D0D0E0328A
:0C059C006462672073746172740D0A00C1
:10051200200225200008200405D2008F9922C2ACB7
:10052200AE350535EE5407242AF8A607E5356533BE
:0905320054077002D202D2AC227F
:0C0026008E0E8F0F8D108B118A12891323
:10003200C20BE50F450E701274301201B5AB11AA56
:1000420012A913900001E40201C7E510B41008756B
:1000520014107515008006751427751510E51545E1
:10006200146076AC14AD15AE0EAF0F1201E98F1607
:10007200AE0EAF0FAC14AD151201E98C0E8D0FE56B
:10008200166002D20BE5167003300B23E516C394FB
:100092000AE5165004243080022437AB11AA12A9B3
:1000A200131201B574012513F513E43512F512E5A7
:1000B20010B41014E514C4F854F0C868F514E5152A
:1000C200C4540F48F5158095AE14AF157C007D0A17
:1000D2001201E98E148F158084AB11AA12A913E4C0
:0300E2001201B553
:0100E50022F8
:06053B008B0E8A0F8910EF
:10054100AB0EAA0FA91012019CF5116012AF111286
:0F05510005D474012510F510E4350FF50F80E186
:010560002278
:080332008E088F098C0A8D0B67
:10033A000509E509AE087002050814F5828E83E402
:10034A00937E008E0CF50D60526425450C704505B0
:10035A0009E509AE087002050814F5828E83E49354
:10036A00249C601624FB601224F16004242070C0CF
:10037A007B007A0079377D1080087B007A00793714
:10038A007D0AAF0BAE0A1200267B007A007937127B
:0B039A00053B809CAF0D1205D4809540
:0103A5002235
:0605D4002002FD020512E9
:03002000AF3622D6
:0A05C000C2ACE4F534F532D2AC22EF
:1004E300E4F534F532C200C204C201C20275985069
:1004F300438920F587758DFD758BFDC2ACC299D2FA
:0F0503008EC2031205C07BFF7A05799C02053B6F
:030023000204A232
:0B04A200C0E0C0D075D000C000C00753
:1004AD00309806AF99C2988F36309921C2992002A3
:1004BD0006E53365356014200413AF330533EF546F
:0D04CD0007242AF8E6F599C2028002C20059
:0904DA00D007D000D0D0D0E032F0
:10000E00E4F518F517C208C207F519F51AC205D29C
:02001E00972227
:0605DA0012000ED2062201
:0305E500C2062229
:10023E0020973CE517C3946450150517E517C39432
:10024E00064003E4F518E517B43C04D208C207C310
:10025E00E51A94FAE51994005051051AE51A700240
:10026E00051964F045197043D205C208C20722E58C
:10027E0018C3940C50350518E518C39402402CE5AC
:10028E0017943A400EE51A94F0E51994005015C2F1
:10029E00078011E517D39406400AE517943A5004E7
:0C02AE00D207C208E4F517F519F51A2272
:1000E600EF30E704D2A48002C2A400D2A30000002D
:1000F60000C2A3EF30E604D2A48002C2A400D2A3B9
:1001060000000000C2A3EF30E504D2A48002C2A41E
:1001160000D2A300000000C2A3EF30E404D2A48002
:1001260002C2A400D2A300000000C2A3EF30E30481
:10013600D2A48002C2A400D2A300000000C2A3EF92
:1001460030E204D2A48002C2A400D2A300000000C0
:10015600C2A3EF30E104D2A48002C2A400D2A3005D
:10016600000000C2A3EF30E004D2A48002C2A400C3
:10017600D2A300000000C2A3D2A400000000D2A3B4
:10018600000000007F5020A4047F018002DFF7C238
:06019600A300000000229E
:0A05CA00D2A400D2A300C2A30022B5
:0C05A800C2A400D2A300C2A300D2A4226F
:1002BA00E4FFD2A3000030A4027F80C2A3000000A2
:1002CA00D2A3000030A403430740C2A30000D2A374
:1002DA00000030A403430720C2A3000000D2A300F9
:1002EA000030A403430710C2A3000000D2A30000F9
:1002FA0030A403430708C2A3000000D2A3000030C1
:10030A00A403430704C2A3000000D2A3000030A440
:10031A0003430702C2A3000000D2A3000030A403D3
:07032A00430701C2A300001C
:0103310022A9
:02040A00AE073B
:10040C00E4F51EFAD2A4D2A300C2A400C2A300AF8A
:10041C00061200E6EF601EAF051200E6EF6016AFA5
:10042C00031200E6EF600EC2A3C2A400D2A3000028
:10043C00D2A47F0122C2A3C2A400D2A30000D2A4E2
:10044C000ABA03C0C2A3C2A400D2A300D2A4751ED0
:03045C00AA7F0074
:01045F00227A
:0203A600AE07A0
:1003A800E4F51EFBFAD2A4D2A300C2A400C2A300A3
:1003B800AF061200E6EF602FAF051200E6EF6027E8
:1003C800D2A300D2A400C2A400C2A300EE4401FF3D
:1003D8001200E6EF60111202BA1205CAC2A3C2A443
:1003E80000D2A300D2A422C2A3C2A400D2A300D2E6
:1003F800A40BBB00010AEB64034A70A9751EBB7FFE
:01040800FFF4
:0104090022D0
:030000000205B442
:0C05B400787FE4F6D8FD75813C020460FD
:10019C00BB010689828A83E0225002E722BBFE0261
:0901AC00E32289828A83E4932294
:1001B500BB010689828A83F0225002F722BBFE0129
:0201C500F32223
:1001C700F8BB010DE58229F582E5833AF583E8F06E
:1001D700225006E92582C8F622BBFE05E92582C81A
:0201E700F22202
:1001E900BC000BBE0029EF8DF084FFADF022E4CCFA
:1001F900F875F008EF2FFFEE33FEEC33FCEE9DECC3
:10020900984005FCEE9DFE0FD5F0E9E4CEFD22ED08
:10021900F8F5F0EE8420D21CFEADF075F008EF2F52
:10022900FFED33FD4007985006D5F0F222C398FD43
:050239000FD5F0EA22E0
:00000001FF
