:0505D30025640D0A0083
:06000300E4F51CF51B22D0
:0C0583001205731204D61200030205CD0D
:1004A10012058330091DC2097D017C007FAA120358
:1004B100A68F1DE51DF4600B7E057FD3AD1D7C006D
:1004C100120332300ADDC20A7E057FD3AD1D7C00E6
:0504D10012033280CE91
:10057300438901758A58758C9ED28CD2AFD2A92239
:03000B0002055497
:10055400C0E0C0D0758A58758C9E051CD209E51C74
:0F056400B42707751C00D20A051BD0D0D0E03297
:0C058F006462672073746172740D0A00CE
:10050500200225200008200405D2008F9922C2ACC4
:10051500AE350535EE5407242AF8A607E5356533CB
:0905250054077002D202D2AC228C
:0C0026008E0E8F0F8D108B118A12891323
:10003200C20BE50F450E701274301201B5AB11AA56
:1000420012A913900001E40201C7E510B41008756B
:1000520014107515008006751427751510E51545E1
:10006200146076AC14AD15AE0EAF0F1201E98F1607
:10007200AE0EAF0FAC14AD151201E98C0E8D0FE56B
:10008200166002D20BE5167003300B23E516C394FB
:100092000AE5165004243080022437AB11AA12A9B3
:1000A200131201B574012513F513E43512F512E5A7
:1000B20010B41014E514C4F854F0C868F514E5152A
:1000C200C4540F48F5158095AE14AF157C007D0A17
:1000D2001201E98E148F158084AB11AA12A913E4C0
:0300E2001201B553
:0100E50022F8
:06052E008B0E8A0F8910FC
:10053400AB0EAA0FA91012019CF5116012AF111293
:0F05440005C774012510F510E4350FF50F80E1A0
:010553002285
:080332008E088F098C0A8D0B67
:10033A000509E509AE087002050814F5828E83E402
:10034A00937E008E0CF50D60526425450C704505B0
:10035A0009E509AE087002050814F5828E83E49354
:10036A00249C601624FB601224F16004242070C0CF
:10037A007B007A0079377D1080087B007A00793714
:10038A007D0AAF0BAE0A1200267B007A007937127B
:0B039A00052E809CAF0D1205C780955A
:0103A5002235
:0605C7002002FD02050503
:03002000AF3622D6
:0A05B300C2ACE4F534F532D2AC22FC
:1004D600E4F534F532C200C204C201C20275985076
:1004E600438920F587758DFD758BFDC2ACC299D207
:0F04F6008EC2031205B37BFF7A05798F02052EA4
:0300230002046074
:0B046000C0E0C0D075D000C000C00795
:10046B00309806AF99C2988F36309921C2992002E5
:10047B0006E53365356014200413AF330533EF54B1
:0D048B0007242AF8E6F599C2028002C2009B
:09049800D007D000D0D0D0E03232
:10000E00E4F518F517C208C207F519F51AC205D29C
:02001E00972227
:0605CD0012000ED206220E
:0305D800C2062236
:10023E0020973CE517C3946450150517E517C39432
:10024E00064003E4F518E517B43C04D208C207C310
:10025E00E51A94FAE51994005051051AE51A700240
:10026E00051964F045197043D205C208C20722E58C
:10027E0018C3940C50350518E518C39402402CE5AC
:10028E0017943A400EE51A94F0E51994005015C2F1
:10029E00078011E517D39406400AE517943A5004E7
:0C02AE00D207C208E4F517F519F51A2272
:1000E600EF30E704D2918002C29100D29000000066
:1000F60000C290EF30E604D2918002C29100D29005
:1001060000000000C290EF30E504D2918002C29157
:1001160000D29000000000C290EF30E404D291803B
:1001260002C29100D29000000000C290EF30E304BA
:10013600D2918002C29100D29000000000C290EFDE
:1001460030E204D2918002C29100D29000000000F9
:10015600C290EF30E104D2918002C29100D29000A9
:10016600000000C290EF30E004D2918002C29100FC
:10017600D29000000000C290D29100000000D29000
:10018600000000007F502091047F018002DFF7C24B
:06019600900000000022B1
:0A05BD00D29100D29000C2900022FB
:0C059B00C29100D29000C29000D29122C8
:1002BA00E4FFD29000003091027F80C290000000DB
:1002CA00D2900000309103430740C2900000D290C0
:1002DA000000309103430720C290000000D2900032
:1002EA0000309103430710C290000000D290000032
:1002FA00309103430708C290000000D290000030FA
:10030A009103430704C290000000D290000030918C
:10031A0003430702C290000000D29000003091030C
:07032A00430701C29000002F
:0103310022A9
:02040A00AE073B
:10040C00E4F51EFAD291D29000C29100C29000AFD6
:10041C00061200E6EF601EAF051200E6EF6016AFA5
:10042C00031200E6EF600EC290C29100D290000061
:10043C00D2917F0122C290C29100D2900000D29141
:10044C000ABA03C0C290C29100D29000D291751E1C
:03045C00AA7F0074
:01045F00227A
:0203A600AE07A0
:1003A800E4F51EFBFAD291D29000C29100C29000EF
:1003B800AF061200E6EF602FAF051200E6EF6027E8
:1003C800D29000D29100C29100C29000EE4401FF89
:1003D8001200E6EF60111202BA1205BDC290C29176
:1003E80000D29000D29122C290C29100D29000D245
:1003F800910BBB00010AEB64034A70A9751EBB7F11
:01040800FFF4
:0104090022D0
:030000000205A74F
:0C05A700787FE4F6D8FD75813C0204A1C9
:10019C00BB010689828A83E0225002E722BBFE0261
:0901AC00E32289828A83E4932294
:1001B500BB010689828A83F0225002F722BBFE0129
:0201C500F32223
:1001C700F8BB010DE58229F582E5833AF583E8F06E
:1001D700225006E92582C8F622BBFE05E92582C81A
:0201E700F22202
:1001E900BC000BBE0029EF8DF084FFADF022E4CCFA
:1001F900F875F008EF2FFFEE33FEEC33FCEE9DECC3
:10020900984005FCEE9DFE0FD5F0E9E4CEFD22ED08
:10021900F8F5F0EE8420D21CFEADF075F008EF2F52
:10022900FFED33FD4007985006D5F0F222C398FD43
:050239000FD5F0EA22E0
:00000001FF
