:06000300E4F53EF53D228C
:0C0392001203821202B91200030203C61B
:1002E80012039230091FC20912018830070AC20797
:1002F800C290C291C292C29330080AC208D290D268
:0C03080091D292D293300ADBC20A80D757
:10038200438901758A58758C9ED28CD2AFD2A9222C
:03000B000203638A
:10036300C0E0C0D0758A58758C9E053ED209E53E23
:0F037300B42707753E00D20A053DD0D0D0E03246
:0C039E006462672073746172740D0A00C1
:10031400200225200008200405D2008F9922C2ACB7
:10032400AE350535EE5407242AF8A607E5356533BE
:0903340054077002D202D2AC227F
:0C0026008E088F098D0A8B0B8A0C890D47
:10003200C20BE5094508701274301200FFAB0BAA1F
:100042000CA90D900001E4020111E50AB410087533
:100052000E10750F008006750E27750F10E50F45FF
:100062000E6076AC0EAD0FAE08AF091201338F10E1
:10007200AE08AF09AC0EAD0F1201338C088D09E545
:10008200106002D20BE5107003300B23E510C3940D
:100092000AE5105004243080022437AB0BAA0CA9C5
:1000A2000D1200FF7401250DF50DE4350CF50CE57C
:1000B2000AB41014E50EC4F854F0C868F50EE50F42
:1000C200C4540F48F50F8095AE0EAF0F7C007D0A29
:1000D2001201338E0E8F0F8084AB0BAA0CA90DE494
:0300E2001200FF0A
:0100E50022F8
:06033D008B1B8A1C891DC8
:10034300AB1BAA1CA91D1200E6F51E6012AF1E12FC
:0F03530003C07401251DF51DE4351CF51C80E168
:010362002278
:080204008E118F128C138D1472
:10020C000512E512AE117002051114F5828E83E40D
:10021C00937E008E15F516605264254515704505C4
:10022C0012E512AE117002051114F5828E83E4935F
:10023C00249C601624FB601224F16004242070C0FE
:10024C007B007A0079377D1080087B007A00793743
:10025C007D0AAF14AE131200267B007A0079371298
:0B026C00033D809CAF161203C080957C
:010277002264
:0603C0002002FD020314FF
:03002000AF3622D6
:0A03B600C2ACE4F534F532D2AC22FB
:1002B900E4F534F532C200C204C201C20275985095
:1002C900438920F587758DFD758BFDC2ACC299D226
:0F02D9008EC2031203B67BFF7A03799E02033DA8
:030023000202785E
:0B027800C0E0C0D075D000C000C0077F
:10028300309806AF99C2988F36309921C2992002CF
:1002930006E53365356014200413AF330533EF549B
:0D02A30007242AF8E6F599C2028002C20085
:0902B000D007D000D0D0D0E0321C
:10000E00E4F518F517C208C207F519F51AC205D29C
:02001E00972227
:0603C60012000ED2062217
:0303CC00C2062244
:1001880020973CE517C3946450150517E517C394E9
:10019800064003E4F518E517B43C04D208C207C3C7
:1001A800E51A94FAE51994005051051AE51A7002F7
:1001B800051964F045197043D205C208C20722E543
:1001C80018C3940C50350518E518C39402402CE563
:1001D80017943A400EE51A94F0E51994005015C2A8
:1001E800078011E517D39406400AE517943A50049E
:0C01F800D207C208E4F517F519F51A2229
:030000000203AA4E
:0C03AA00787FE4F6D8FD75813E0202E881
:1000E600BB010689828A83E0225002E722BBFE0218
:0900F600E32289828A83E493224B
:1000FF00BB010689828A83F0225002F722BBFE01E0
:02010F00F322D9
:10011100F8BB010DE58229F582E5833AF583E8F024
:10012100225006E92582C8F622BBFE05E92582C8D0
:02013100F222B8
:10013300BC000BBE0029EF8DF084FFADF022E4CCB0
:10014300F875F008EF2FFFEE33FEEC33FCEE9DEC79
:10015300984005FCEE9DFE0FD5F0E9E4CEFD22EDBF
:10016300F8F5F0EE8420D21CFEADF075F008EF2F09
:10017300FFED33FD4007985006D5F0F222C398FDFA
:050183000FD5F0EA2297
:00000001FF
