:05074F0025640D0A0005
:06000300E4F53EF53D228C
:0C06FF001206E012060A1200030207496E
:100512001206FF7B12E4FDFC7FA0120467E4FDFCDF
:100522007FA0120403EFFD7C007E077F4F12038F32
:100532001206C5300925C20912029B1206F01204E6
:10054200BD30070AC207C290C291C292C29330085C
:100552000AC208D290D291D292D293300AD5C20A5C
:0205620080D146
:1006E000438901758A58758C9ED28CD2AFD2A922CB
:03000B0002068862
:10068800C0E0C0D0758A58758C9E053ED209E53EFB
:0F069800B42707753E00D20A053DD0D0D0E0321E
:1006A700D3EF9400EE940040147D707C00ED1D7034
:0D06B700011CED4C70F7EF1F70E61E80E394
:0106C4002213
:0C070B006462672073746172740D0A0050
:10063900200225200008200405D2008F9922C2AC8F
:10064900AE350535EE5407242AF8A607E535653396
:0906590054077002D202D2AC2257
:0C0125008E0E8F0F8D108B118A12891323
:10013100C20CE50F450E7012743012003FAB11AACC
:1001410012A913900001E4020051E510B4100875E2
:1001510014107515008006751427751510E51545E1
:10016100146076AC14AD15AE0EAF0F1200738F167E
:10017100AE0EAF0FAC14AD151200738C0E8D0FE5E2
:10018100166002D20CE5167003300C23E516C394F9
:100191000AE5165004243080022437AB11AA12A9B3
:1001A1001312003F74012513F513E43512F512E51E
:1001B10010B41014E514C4F854F0C868F514E5152A
:1001C100C4540F48F5158095AE14AF157C007D0A17
:1001D1001200738E148F158084AB11AA12A913E437
:0301E10012003FCA
:0101E40022F8
:060662008B0E8A0F8910C7
:10066800AB0EAA0FA910120026F5116012AF1112D5
:0F067800074374012510F510E4350FF50F80E1ED
:010687002250
:08038F008E088F098C0A8D0B0A
:100397000509E509AE087002050814F5828E83E4A5
:1003A700937E008E0CF50D60526425450C70450553
:1003B70009E509AE087002050814F5828E83E493F7
:1003C700249C601624FB601224F16004242070C072
:1003D7007B007A0079377D1080087B007A007937B7
:1003E7007D0AAF0BAE0A1201257B007A007937121E
:0B03F7000662809CAF0D12074380954A
:0104020022D7
:060743002002FD02063950
:03002000AF3622D6
:0A072F00C2ACE4F534F532D2AC227E
:10060A00E4F534F532C200C204C201C20275985040
:10061A00438920F587758DFD758BFDC2ACC299D2D1
:0F062A008EC20312072F7BFF7A07790B0206623D
:030023000205646F
:0B056400C0E0C0D075D000C000C00790
:10056F00309806AF99C2988F36309921C2992002E0
:10057F0006E53365356014200413AF330533EF54AC
:0D058F0007242AF8E6F599C2028002C20096
:09059C00D007D000D0D0D0E0322D
:10000E00E4F51DF51CC208C207F51EF51FC205D288
:02001E00972227
:0607490012000ED2062290
:03075400C20622B8
:10029B0020973CE51CC394645015051CE51CC394C6
:1002AB00064003E4F51DE51CB43C04D208C207C3A9
:1002BB00E51F94FAE51E94005051051FE51F7002CF
:1002CB00051E64F0451E7043D205C208C20722E525
:1002DB001DC3940C5035051DE51DC39402402CE540
:1002EB001C943A400EE51F94F0E51E94005015C285
:1002FB00078011E51CD39406400AE51C943A500480
:0C030B00D207C208E4F51CF51EF51F2205
:1001E500EF30E704D2958002C29500D2940000005A
:1001F50000C294EF30E604D2958002C29500D294F5
:1002050000000000C294EF30E504D2958002C2954B
:1002150000D29400000000C294EF30E404D295802F
:1002250002C29500D29400000000C294EF30E304AE
:10023500D2958002C29500D29400000000C294EFCE
:1002450030E204D2958002C29500D29400000000ED
:10025500C294EF30E104D2958002C29500D2940099
:10026500000000C294EF30E004D2958002C29500F0
:10027500D29400000000C294D29500000000D294F0
:10028500000000007F502095047F018002DFF7C247
:06029500940000000022AD
:0A073900D29500D29400C294002271
:0C071700C29500D29400C29400D295223A
:10031700E4FFD29400003095027F80C29400000071
:10032700D2940000309503430740C2940000D29452
:100337000000309503430720C294000000D29400C8
:1003470000309503430710C294000000D2940000C8
:10035700309503430708C294000000D29400003090
:100367009503430704C294000000D294000030951F
:1003770003430702C294000000D2940000309503A3
:07038700430701C2940000CE
:01038E00224C
:02046700AE07DE
:10046900E4F540FAD295D29400C29500C29400AF47
:10047900061201E5EF601EAF051201E5EF6016AF48
:10048900031201E5EF600EC294C29500D2940000F8
:10049900D2957F0122C294C29500D2940000D295D0
:1004A9000ABA03C0C294C29500D29400D29575408D
:0304B900AA7F0017
:0104BC00221D
:02040300AE0742
:10040500E4F540FBFAD295D29400C29500C294005F
:10041500AF061201E5EF602FAF051201E5EF60278A
:10042500D29400D29500C29500C29400EE4401FF1B
:100435001201E5EF6011120317120739C294C29534
:1004450000D29400D29522C294C29500D29400D2D3
:10045500950BBB00010AEB64034A70A97540BB7F8D
:01046500FF97
:010466002273
:1005DA0000FF000AFF0009FF0760FF0761FF0757D6
:1005EA0001FF0762FF0763FF0764FF0765FF075AFA
:1005FA0002FF0766FF0767FF0768FF0769FF075DD6
:0100090022D4
:01000A0022D3
:010760002276
:010761002275
:03075700AF1A22B4
:010762002274
:010763002273
:010764002272
:010765002271
:03075A00AF1A22B1
:010766002270
:01076700226F
:01076800226E
:01076900226D
:03075D00AF1A22AE
:0205A5008F09BC
:1005A700E4F50AE50AC454F024DAF582E43405F5E3
:1005B70083E493B50915E50A75F010A424DAF974F4
:1005C7000535F07517FFF518891922050AE50AB4EC
:0205D70003D14E
:0105D90022FF
:1006C500E4F51A7BFF7A0579DA8B178A1889199070
:0B06D50000011200C81200F8C20B2246
:1004BD00AB17AA18A9199000071200C81200F8ABC3
:1004CD0017AA18A91990000D1200C81200F88F086C
:1004DD00200B06E508651A602BC20BAB17AA18A9ED
:1004ED00199000041200C81200F8AF081205A58576
:1004FD001A1B85081AAB17AA18A91990000112002A
:04050D00C81200F818
:0105110022C7
:0F06F000AB17AA18A91990000A1200C80200F847
:03000000020723D1
:0C072300787FE4F6D8FD758140020512D5
:10002600BB010689828A83E0225002E722BBFE02D8
:09003600E32289828A83E493220B
:10003F00BB010689828A83F0225002F722BBFE01A0
:02004F00F3229A
:10005100F8BB010DE58229F582E5833AF583E8F0E5
:10006100225006E92582C8F622BBFE05E92582C891
:02007100F22279
:10007300BC000BBE0029EF8DF084FFADF022E4CC71
:10008300F875F008EF2FFFEE33FEEC33FCEE9DEC3A
:10009300984005FCEE9DFE0FD5F0E9E4CEFD22ED80
:1000A300F8F5F0EE8420D21CFEADF075F008EF2FCA
:1000B300FFED33FD4007985006D5F0F222C398FDBB
:0500C3000FD5F0EA2258
:1000C800BB010DE58229F582E5833AF58302010734
:1000D8005007E92582F80200FEBBFE07E92582F8F1
:1000E800020110E58229F582E5833AF583020119B8
:0600F8008A838982E47393
:0900FE00E6FB08E6FA08E6F92227
:09010700E0FBA3E0FAA3E0F922F9
:09011000E2FB08E2FA08E2F92220
:0C011900E493FB740193FA740293F92242
:00000001FF
