:10000E00636F6D706C65746520696E69740D0A009E
:05001E0025640D0A003D
:06000300E4F53EF53D228C
:0F07A90012079912061D12000312081E02064CB9
:100467001207A97BFF7A00790E1206A37B12E4FD1F
:10047700FC7FA01204C2E4FDFC7FA0120403EFFD81
:100487007C007E007F1E12038F12073E300925C2B3
:100497000912029B1207B812051830070AC207C2D1
:1004A70090C291C292C29330080AC208D290D291E8
:0B04B700D292D293300AD5C20A80D145
:10079900438901758A58758C9ED28CD2AFD2A92211
:03000B000206C921
:1006C900C0E0C0D0758A58758C9E053ED209E53EBA
:0F06D900B42707753E00D20A053DD0D0D0E032DD
:1006E800D3EF9400EE940040147D707C00ED1D70F3
:0D06F800011CED4C70F7EF1F70E61E80E353
:0107050022D1
:0C07D5006462672073746172740D0A0086
:10067A00200225200008200405D2008F9922C2AC4E
:10068A00AE350535EE5407242AF8A607E535653355
:09069A0054077002D202D2AC2216
:0C0125008E0E8F0F8D108B118A12891323
:10013100C20CE50F450E7012743012003FAB11AACC
:1001410012A913900001E4020051E510B4100875E2
:1001510014107515008006751427751510E51545E1
:10016100146076AC14AD15AE0EAF0F1200738F167E
:10017100AE0EAF0FAC14AD151200738C0E8D0FE5E2
:10018100166002D20CE5167003300C23E516C394F9
:100191000AE5165004243080022437AB11AA12A9B3
:1001A1001312003F74012513F513E43512F512E51E
:1001B10010B41014E514C4F854F0C868F514E5152A
:1001C100C4540F48F5158095AE14AF157C007D0A17
:1001D1001200738E148F158084AB11AA12A913E437
:0301E10012003FCA
:0101E40022F8
:0606A3008B0E8A0F891086
:1006A900AB0EAA0FA910120026F5116012AF111294
:0F06B900081874012510F510E4350FF50F80E1D6
:0106C800220F
:08038F008E088F098C0A8D0B0A
:100397000509E509AE087002050814F5828E83E4A5
:1003A700937E008E0CF50D60526425450C70450553
:1003B70009E509AE087002050814F5828E83E493F7
:1003C700249C601624FB601224F16004242070C072
:1003D7007B007A0079377D1080087B007A007937B7
:1003E7007D0AAF0BAE0A1201257B007A007937121E
:0B03F70006A3809CAF0D120818809533
:0104020022D7
:060818002002FD02067A39
:03082400AF3622CA
:0A080400C2ACE4F534F532D2AC22A8
:10061D00E4F534F532C200C204C201C2027598502D
:10062D00438920F587758DFD758BFDC2ACC299D2BE
:0F063D008EC2031208047BFF7A0779D50206A349
:0300230002056D66
:0B056D00C0E0C0D075D000C000C00787
:10057800309806AF99C2988F36309921C2992002D7
:1005880006E53365356014200413AF330533EF54A3
:0D05980007242AF8E6F599C2028002C2008D
:0905A500D007D000D0D0D0E03224
:10078700E4F51DF51CC208C207F51EF51FC205D208
:020797009722A7
:06081E00120787D206223A
:03082700C20622E4
:10029B0020973CE51CC394645015051CE51CC394C6
:1002AB00064003E4F51DE51CB43C04D208C207C3A9
:1002BB00E51F94FAE51E94005051051FE51F7002CF
:1002CB00051E64F0451E7043D205C208C20722E525
:1002DB001DC3940C5035051DE51DC39402402CE540
:1002EB001C943A400EE51F94F0E51E94005015C285
:1002FB00078011E51CD39406400AE51C943A500480
:0C030B00D207C208E4F51CF51EF51F2205
:1001E500EF30E704D2958002C29500D2940000005A
:1001F50000C294EF30E604D2958002C29500D294F5
:1002050000000000C294EF30E504D2958002C2954B
:1002150000D29400000000C294EF30E404D295802F
:1002250002C29500D29400000000C294EF30E304AE
:10023500D2958002C29500D29400000000C294EFCE
:1002450030E204D2958002C29500D29400000000ED
:10025500C294EF30E104D2958002C29500D2940099
:10026500000000C294EF30E004D2958002C29500F0
:10027500D29400000000C294D29500000000D294F0
:10028500000000007F502095047F018002DFF7C247
:06029500940000000022AD
:0A080E00D29500D29400C29400229B
:0C07E100C29500D29400C29400D2952270
:10031700E4FFD29400003095027F80C29400000071
:10032700D2940000309503430740C2940000D29452
:100337000000309503430720C294000000D29400C8
:1003470000309503430710C294000000D2940000C8
:10035700309503430708C294000000D29400003090
:100367009503430704C294000000D294000030951F
:1003770003430702C294000000D2940000309503A3
:07038700430701C2940000CE
:01038E00224C
:0204C200AE0783
:1004C400E4F540FAD295D29400C29500C29400AFEC
:1004D400061201E5EF601EAF051201E5EF6016AFED
:1004E400031201E5EF600EC294C29500D29400009D
:1004F400D2957F0122C294C29500D2940000D29575
:100504000ABA03C0C294C29500D29400D295754031
:03051400AA7F00BB
:0105170022C1
:02040300AE0742
:10040500E4F540FBFAD295D29400C29500C294005F
:10041500AF061201E5EF602FAF051201E5EF60278A
:10042500D29400D29500C29500C29400EE4401FF1B
:100435001201E5EF601112031712080EC294C2955E
:1004450000D29400D29522C294C29500D29400D2D3
:10045500950BBB00010AEB64034A70A97540BB7F8D
:01046500FF97
:010466002273
:1005AE0059414E4747554F4B450000FF07F9FF0095
:1005BE0009FF000AFF0833FF082A01FF0834FF086D
:1005CE0035FF0836FF0837FF082D02FF0838FF08F1
:0A05DE0039FF083AFF083BFF083020
:0100090022D4
:0B07F9007BFF7A0579AEE4FD02075992
:01000A0022D3
:0108330022A2
:03082A00AF1A22E0
:0108340022A1
:0108350022A0
:01083600229F
:01083700229E
:03082D00AF1A22DD
:01083800229D
:01083900229C
:01083A00229B
:01083B00229A
:03083000AF1A22DA
:0205E8008F0979
:1005EA00E4F50AE50AC454F024B8F582E43405F5C2
:1005FA0083E493B50915E50A75F010A424B8F974D3
:10060A000535F07517FFF518891922050AE50AB4A8
:02061A0003D10A
:01061C0022BB
:10073E00E4F51A7BFF7A0579B88B178A1889199018
:0B074E0000011200C81200F8C20B22CC
:10051800AB17AA18A9199000071200C81200F8AB67
:1005280017AA18A91990000D1200C81200F88F0810
:10053800200B06E508651A602BC20BAB17AA18A991
:10054800199000041200C81200F8AF081205E885D7
:100558001A1B85081AAB17AA18A9199000011200CE
:04056800C81200F8BD
:01056C00226C
:0F07B800AB17AA18A91990000A1200C80200F87E
:10077300C2A0D2A1D2A200000000E58033920CC235
:03078300A2A20C23
:010786002250
:1007060012077340FBD2A0C2A1C2A200008F8000D4
:0C071600000000D2A200000000C2A222DD
:1007220012077340FBC2A0C2A1C2A200008F8000C8
:0C073200000000D2A200000000C2A222C1
:0E07C700AE07ED4480FF120722AF06020706C0
:10075900ED4480FF120722120026FF600C120706E3
:0A076900740129F9E43AFA80EE2247
:10064C007F381207227F017E001206E87F0C12070A
:10065C00227F017E001206E87F061207227F017EB0
:0E066C00001206E87F011207227E000206E857
:030000000207ED07
:0C07ED00787FE4F6D8FD758140020467B7
:10002600BB010689828A83E0225002E722BBFE02D8
:09003600E32289828A83E493220B
:10003F00BB010689828A83F0225002F722BBFE01A0
:02004F00F3229A
:10005100F8BB010DE58229F582E5833AF583E8F0E5
:10006100225006E92582C8F622BBFE05E92582C891
:02007100F22279
:10007300BC000BBE0029EF8DF084FFADF022E4CC71
:10008300F875F008EF2FFFEE33FEEC33FCEE9DEC3A
:10009300984005FCEE9DFE0FD5F0E9E4CEFD22ED80
:1000A300F8F5F0EE8420D21CFEADF075F008EF2FCA
:1000B300FFED33FD4007985006D5F0F222C398FDBB
:0500C3000FD5F0EA2258
:1000C800BB010DE58229F582E5833AF58302010734
:1000D8005007E92582F80200FEBBFE07E92582F8F1
:1000E800020110E58229F582E5833AF583020119B8
:0600F8008A838982E47393
:0900FE00E6FB08E6FA08E6F92227
:09010700E0FBA3E0FAA3E0F922F9
:09011000E2FB08E2FA08E2F92220
:0C011900E493FB740193FA740293F92242
:00000001FF
